{
  "contractName": "AssetTracker",
  "abi": [
    {
      "anonymous": false,
      "inputs": [
        {
          "indexed": false,
          "internalType": "string",
          "name": "name",
          "type": "string"
        },
        {
          "indexed": false,
          "internalType": "string",
          "name": "add",
          "type": "string"
        },
        {
          "indexed": false,
          "internalType": "string",
          "name": "email",
          "type": "string"
        },
        {
          "indexed": false,
          "internalType": "string",
          "name": "phone",
          "type": "string"
        }
      ],
      "name": "RejectDistributor",
      "type": "event"
    },
    {
      "inputs": [],
      "name": "assetCount",
      "outputs": [
        {
          "internalType": "uint256",
          "name": "",
          "type": "uint256"
        }
      ],
      "stateMutability": "view",
      "type": "function"
    },
    {
      "inputs": [],
      "name": "distributorCount",
      "outputs": [
        {
          "internalType": "uint256",
          "name": "",
          "type": "uint256"
        }
      ],
      "stateMutability": "view",
      "type": "function"
    },
    {
      "inputs": [
        {
          "internalType": "string",
          "name": "name",
          "type": "string"
        },
        {
          "internalType": "string",
          "name": "add",
          "type": "string"
        },
        {
          "internalType": "string",
          "name": "email",
          "type": "string"
        },
        {
          "internalType": "string",
          "name": "phone",
          "type": "string"
        }
      ],
      "name": "insertDistributor",
      "outputs": [
        {
          "internalType": "bool",
          "name": "",
          "type": "bool"
        }
      ],
      "stateMutability": "nonpayable",
      "type": "function"
    },
    {
      "inputs": [
        {
          "internalType": "uint256",
          "name": "id",
          "type": "uint256"
        }
      ],
      "name": "getDistributorbyId",
      "outputs": [
        {
          "internalType": "string",
          "name": "",
          "type": "string"
        },
        {
          "internalType": "string",
          "name": "",
          "type": "string"
        },
        {
          "internalType": "string",
          "name": "",
          "type": "string"
        },
        {
          "internalType": "string",
          "name": "",
          "type": "string"
        }
      ],
      "stateMutability": "view",
      "type": "function"
    },
    {
      "inputs": [],
      "name": "getAllDistributors",
      "outputs": [
        {
          "components": [
            {
              "internalType": "uint256",
              "name": "id",
              "type": "uint256"
            },
            {
              "internalType": "string",
              "name": "name",
              "type": "string"
            },
            {
              "internalType": "string",
              "name": "add",
              "type": "string"
            },
            {
              "internalType": "string",
              "name": "email",
              "type": "string"
            },
            {
              "internalType": "string",
              "name": "phone",
              "type": "string"
            }
          ],
          "internalType": "struct AssetTracker.Person[]",
          "name": "",
          "type": "tuple[]"
        }
      ],
      "stateMutability": "view",
      "type": "function"
    },
    {
      "inputs": [
        {
          "internalType": "uint256",
          "name": "_amount",
          "type": "uint256"
        }
      ],
      "name": "balance",
      "outputs": [
        {
          "internalType": "bool",
          "name": "",
          "type": "bool"
        }
      ],
      "stateMutability": "pure",
      "type": "function"
    },
    {
      "inputs": [
        {
          "internalType": "string",
          "name": "name",
          "type": "string"
        },
        {
          "internalType": "string",
          "name": "description",
          "type": "string"
        },
        {
          "internalType": "uint256",
          "name": "distributorld",
          "type": "uint256"
        },
        {
          "internalType": "uint256",
          "name": "cost",
          "type": "uint256"
        },
        {
          "internalType": "uint256",
          "name": "quantity",
          "type": "uint256"
        },
        {
          "internalType": "string",
          "name": "manufacturer",
          "type": "string"
        },
        {
          "internalType": "string",
          "name": "customer",
          "type": "string"
        },
        {
          "internalType": "string",
          "name": "addressFrom",
          "type": "string"
        },
        {
          "internalType": "string",
          "name": "addressTo",
          "type": "string"
        }
      ],
      "name": "createAsset",
      "outputs": [],
      "stateMutability": "nonpayable",
      "type": "function"
    },
    {
      "inputs": [
        {
          "internalType": "address",
          "name": "to",
          "type": "address"
        },
        {
          "internalType": "uint256",
          "name": "i",
          "type": "uint256"
        }
      ],
      "name": "transferAsset",
      "outputs": [],
      "stateMutability": "nonpayable",
      "type": "function"
    },
    {
      "inputs": [
        {
          "internalType": "uint256",
          "name": "i",
          "type": "uint256"
        }
      ],
      "name": "getItemByUUID",
      "outputs": [
        {
          "internalType": "uint256",
          "name": "cost",
          "type": "uint256"
        },
        {
          "internalType": "uint256",
          "name": "quantity",
          "type": "uint256"
        }
      ],
      "stateMutability": "view",
      "type": "function"
    },
    {
      "inputs": [
        {
          "internalType": "address",
          "name": "owner",
          "type": "address"
        },
        {
          "internalType": "uint256",
          "name": "i",
          "type": "uint256"
        }
      ],
      "name": "isOwnerOf",
      "outputs": [
        {
          "internalType": "bool",
          "name": "",
          "type": "bool"
        }
      ],
      "stateMutability": "view",
      "type": "function"
    },
    {
      "inputs": [],
      "name": "getAllAssets",
      "outputs": [
        {
          "components": [
            {
              "internalType": "string",
              "name": "name",
              "type": "string"
            },
            {
              "internalType": "string",
              "name": "description",
              "type": "string"
            },
            {
              "internalType": "uint256",
              "name": "cost",
              "type": "uint256"
            },
            {
              "internalType": "uint256",
              "name": "quantity",
              "type": "uint256"
            },
            {
              "internalType": "string",
              "name": "manufacturer",
              "type": "string"
            },
            {
              "internalType": "string",
              "name": "customer",
              "type": "string"
            },
            {
              "internalType": "string",
              "name": "addressFrom",
              "type": "string"
            },
            {
              "internalType": "string",
              "name": "addressTo",
              "type": "string"
            },
            {
              "internalType": "bool",
              "name": "initialized",
              "type": "bool"
            },
            {
              "internalType": "bool",
              "name": "arrived",
              "type": "bool"
            },
            {
              "internalType": "uint256",
              "name": "distributorld",
              "type": "uint256"
            }
          ],
          "internalType": "struct AssetTracker.Asset[]",
          "name": "",
          "type": "tuple[]"
        }
      ],
      "stateMutability": "view",
      "type": "function"
    },
    {
      "inputs": [
        {
          "internalType": "uint256",
          "name": "i",
          "type": "uint256"
        }
      ],
      "name": "markAsArrived",
      "outputs": [],
      "stateMutability": "nonpayable",
      "type": "function"
    }
  ],
  "bytecode": "0x60806040526000600155600060025534801561001a57600080fd5b506118eb8061002a6000396000f3fe608060405234801561001057600080fd5b50600436106100b45760003560e01c8063752493291161007157806375249329146101675780638e24c34b1461017a578063ba1d89951461018f578063c5b8f772146101b7578063eafe7a74146101ca578063fdd0e4d7146101d357600080fd5b80631e78717d146100b95780632acada4d146100ce5780632f1bda85146100ec5780633ac140e81461011a57806347bb89f0146101315780635c921eb914610154575b600080fd5b6100cc6100c7366004611300565b6101f6565b005b6100d661038e565b6040516100e39190611461565b60405180910390f35b6100cc6100fa366004611596565b6000908152600360205260409020600801805461ff001916610100179055565b61012360015481565b6040519081526020016100e3565b61014461013f366004611596565b610850565b60405190151581526020016100e3565b6100cc6101623660046115af565b6108ba565b6101446101753660046115e7565b6109da565b610182610b7b565b6040516100e39190611694565b6101a261019d366004611596565b610eb2565b604080519283526020830191909152016100e3565b6101446101c53660046115af565b610f1d565b61012360025481565b6101e66101e1366004611596565b610f5b565b6040516100e3949392919061174d565b60408051610160810182528a815260208082018b9052818301899052606082018890526080820187905260a0820186905260c0820185905260e0820184905260016101008301526000610120830181905261014083018b905260025481526003825292909220815180519293919261027192849201906111c4565b50602082810151805161028a92600185019201906111c4565b506040820151600282015560608201516003820155608082015180516102ba9160048401916020909101906111c4565b5060a082015180516102d69160058401916020909101906111c4565b5060c082015180516102f29160068401916020909101906111c4565b5060e0820151805161030e9160078401916020909101906111c4565b506101008281015160088301805461012086015161ffff1990911692151561ff001916929092179115159092021790556101409091015160099091015533600090815260046020908152604080832060028054855292528220805460ff1916600117905580549161037e836117a5565b9190505550505050505050505050565b6060600060025467ffffffffffffffff8111156103ad576103ad61125d565b60405190808252806020026020018201604052801561043f57816020015b61042c6040518061016001604052806060815260200160608152602001600081526020016000815260200160608152602001606081526020016060815260200160608152602001600015158152602001600015158152602001600081525090565b8152602001906001900390816103cb5790505b50905060005b60025481101561084a576000818152600360205260409081902081516101608101909252805490919082908290829061047d906117ce565b80601f01602080910402602001604051908101604052809291908181526020018280546104a9906117ce565b80156104f65780601f106104cb576101008083540402835291602001916104f6565b820191906000526020600020905b8154815290600101906020018083116104d957829003601f168201915b5050505050815260200160018201805461050f906117ce565b80601f016020809104026020016040519081016040528092919081815260200182805461053b906117ce565b80156105885780601f1061055d57610100808354040283529160200191610588565b820191906000526020600020905b81548152906001019060200180831161056b57829003601f168201915b5050505050815260200160028201548152602001600382015481526020016004820180546105b5906117ce565b80601f01602080910402602001604051908101604052809291908181526020018280546105e1906117ce565b801561062e5780601f106106035761010080835404028352916020019161062e565b820191906000526020600020905b81548152906001019060200180831161061157829003601f168201915b50505050508152602001600582018054610647906117ce565b80601f0160208091040260200160405190810160405280929190818152602001828054610673906117ce565b80156106c05780601f10610695576101008083540402835291602001916106c0565b820191906000526020600020905b8154815290600101906020018083116106a357829003601f168201915b505050505081526020016006820180546106d9906117ce565b80601f0160208091040260200160405190810160405280929190818152602001828054610705906117ce565b80156107525780601f1061072757610100808354040283529160200191610752565b820191906000526020600020905b81548152906001019060200180831161073557829003601f168201915b5050505050815260200160078201805461076b906117ce565b80601f0160208091040260200160405190810160405280929190818152602001828054610797906117ce565b80156107e45780601f106107b9576101008083540402835291602001916107e4565b820191906000526020600020905b8154815290600101906020018083116107c757829003601f168201915b5050509183525050600882015460ff808216151560208401526101009091041615156040820152600990910154606090910152835184908490811061082b5761082b611803565b6020026020010181905250508080610842906117a5565b915050610445565b50919050565b6000601482116108b25760405162461bcd60e51b815260206004820152602260248201527f42616c616e6365206e65656420746f2062652067726561746572207468616e20604482015261032360f41b60648201526084015b60405180910390fd5b506001919050565b60025460009081526003602052604090206008015460ff1615156001146109235760405162461bcd60e51b815260206004820152601e60248201527f4e6f20617373657420776974682074686973205555494420657869737473000060448201526064016108a9565b33600090815260046020908152604080832084845290915290205460ff1661098d5760405162461bcd60e51b815260206004820152601e60248201527f53656e64657220646f6573206e6f74206f776e2074686973206173736574000060448201526064016108a9565b3360009081526004602081815260408084208585528252808420805460ff199081169091556001600160a01b03969096168452918152818320938352929092522080549091166001179055565b6000805b600154811015610aae576040516c31323340676d61696c2e636f6d60981b6020820152602d0160408051601f1981840301815282825280516020918201206000858152808352929092209192610a38926003019101611819565b604051602081830303815290604052805190602001201415610a9c5760405162461bcd60e51b815260206004820152601a60248201527f4469737472696275746f7220616c72656164792065786973747300000000000060448201526064016108a9565b80610aa6816117a5565b9150506109de565b506040805160a0810182526001805480835260208084018a81528486018a905260608501899052608085018890526000928352828252949091208351815593518051939493610b049385019291909101906111c4565b5060408201518051610b209160028401916020909101906111c4565b5060608201518051610b3c9160038401916020909101906111c4565b5060808201518051610b589160048401916020909101906111c4565b50506001805491506000610b6b836117a5565b9091555060019695505050505050565b6060600060015467ffffffffffffffff811115610b9a57610b9a61125d565b604051908082528060200260200182016040528015610bfd57816020015b610bea6040518060a0016040528060008152602001606081526020016060815260200160608152602001606081525090565b815260200190600190039081610bb85790505b50905060005b60015481101561084a5760008060008381526020019081526020016000209050806040518060a001604052908160008201548152602001600182018054610c49906117ce565b80601f0160208091040260200160405190810160405280929190818152602001828054610c75906117ce565b8015610cc25780601f10610c9757610100808354040283529160200191610cc2565b820191906000526020600020905b815481529060010190602001808311610ca557829003601f168201915b50505050508152602001600282018054610cdb906117ce565b80601f0160208091040260200160405190810160405280929190818152602001828054610d07906117ce565b8015610d545780601f10610d2957610100808354040283529160200191610d54565b820191906000526020600020905b815481529060010190602001808311610d3757829003601f168201915b50505050508152602001600382018054610d6d906117ce565b80601f0160208091040260200160405190810160405280929190818152602001828054610d99906117ce565b8015610de65780601f10610dbb57610100808354040283529160200191610de6565b820191906000526020600020905b815481529060010190602001808311610dc957829003601f168201915b50505050508152602001600482018054610dff906117ce565b80601f0160208091040260200160405190810160405280929190818152602001828054610e2b906117ce565b8015610e785780601f10610e4d57610100808354040283529160200191610e78565b820191906000526020600020905b815481529060010190602001808311610e5b57829003601f168201915b505050505081525050838381518110610e9357610e93611803565b6020026020010181905250508080610eaa906117a5565b915050610c03565b600080600254831115610efe5760405162461bcd60e51b8152602060048201526014602482015273105cdcd95d08191bd95cc81b9bdd08195e1a5cdd60621b60448201526064016108a9565b5050600090815260036020819052604090912060028101549101549091565b6001600160a01b038216600090815260046020908152604080832084845290915281205460ff1615610f5157506001610f55565b5060005b92915050565b600081815260208190526040902060018101805460609283928392839260028101916003820191600401908490610f91906117ce565b80601f0160208091040260200160405190810160405280929190818152602001828054610fbd906117ce565b801561100a5780601f10610fdf5761010080835404028352916020019161100a565b820191906000526020600020905b815481529060010190602001808311610fed57829003601f168201915b5050505050935082805461101d906117ce565b80601f0160208091040260200160405190810160405280929190818152602001828054611049906117ce565b80156110965780601f1061106b57610100808354040283529160200191611096565b820191906000526020600020905b81548152906001019060200180831161107957829003601f168201915b505050505092508180546110a9906117ce565b80601f01602080910402602001604051908101604052809291908181526020018280546110d5906117ce565b80156111225780601f106110f757610100808354040283529160200191611122565b820191906000526020600020905b81548152906001019060200180831161110557829003601f168201915b50505050509150808054611135906117ce565b80601f0160208091040260200160405190810160405280929190818152602001828054611161906117ce565b80156111ae5780601f10611183576101008083540402835291602001916111ae565b820191906000526020600020905b81548152906001019060200180831161119157829003601f168201915b5050505050905093509350935093509193509193565b8280546111d0906117ce565b90600052602060002090601f0160209004810192826111f25760008555611238565b82601f1061120b57805160ff1916838001178555611238565b82800160010185558215611238579182015b8281111561123857825182559160200191906001019061121d565b50611244929150611248565b5090565b5b808211156112445760008155600101611249565b634e487b7160e01b600052604160045260246000fd5b600082601f83011261128457600080fd5b813567ffffffffffffffff8082111561129f5761129f61125d565b604051601f8301601f19908116603f011681019082821181831017156112c7576112c761125d565b816040528381528660208588010111156112e057600080fd5b836020870160208301376000602085830101528094505050505092915050565b60008060008060008060008060006101208a8c03121561131f57600080fd5b893567ffffffffffffffff8082111561133757600080fd5b6113438d838e01611273565b9a5060208c013591508082111561135957600080fd5b6113658d838e01611273565b995060408c0135985060608c0135975060808c0135965060a08c013591508082111561139057600080fd5b61139c8d838e01611273565b955060c08c01359150808211156113b257600080fd5b6113be8d838e01611273565b945060e08c01359150808211156113d457600080fd5b6113e08d838e01611273565b93506101008c01359150808211156113f757600080fd5b506114048c828d01611273565b9150509295985092959850929598565b6000815180845260005b8181101561143a5760208185018101518683018201520161141e565b8181111561144c576000602083870101525b50601f01601f19169290920160200192915050565b60006020808301818452808551808352604092508286019150828160051b87010184880160005b8381101561158857603f19898403018552815161016081518186526114af82870182611414565b915050888201518582038a8701526114c78282611414565b91505087820151888601526060808301518187015250608080830151868303828801526114f48382611414565b9250505060a0808301518683038288015261150f8382611414565b9250505060c0808301518683038288015261152a8382611414565b9250505060e080830151868303828801526115458382611414565b925050506101008083015161155d8288018215159052565b5050610120828101511515908601526101409182015191909401529386019390860190600101611488565b509098975050505050505050565b6000602082840312156115a857600080fd5b5035919050565b600080604083850312156115c257600080fd5b82356001600160a01b03811681146115d957600080fd5b946020939093013593505050565b600080600080608085870312156115fd57600080fd5b843567ffffffffffffffff8082111561161557600080fd5b61162188838901611273565b9550602087013591508082111561163757600080fd5b61164388838901611273565b9450604087013591508082111561165957600080fd5b61166588838901611273565b9350606087013591508082111561167b57600080fd5b5061168887828801611273565b91505092959194509250565b60006020808301818452808551808352604092508286019150828160051b87010184880160005b8381101561158857603f19898403018552815160a08151855288820151818a8701526116e982870182611414565b91505087820151858203898701526117018282611414565b9150506060808301518683038288015261171b8382611414565b92505050608080830151925085820381870152506117398183611414565b9689019694505050908601906001016116bb565b6080815260006117606080830187611414565b82810360208401526117728187611414565b905082810360408401526117868186611414565b9050828103606084015261179a8185611414565b979650505050505050565b60006000198214156117c757634e487b7160e01b600052601160045260246000fd5b5060010190565b600181811c908216806117e257607f821691505b6020821081141561084a57634e487b7160e01b600052602260045260246000fd5b634e487b7160e01b600052603260045260246000fd5b600080835481600182811c91508083168061183557607f831692505b602080841082141561185557634e487b7160e01b86526022600452602486fd5b818015611869576001811461187a576118a7565b60ff198616895284890196506118a7565b60008a81526020902060005b8681101561189f5781548b820152908501908301611886565b505084890196505b50949897505050505050505056fea2646970667358221220243ee44d957a74ac0d478747755a460347b159d9ecd668f3ca78fc34c1385a1364736f6c634300080c0033",
  "immutableReferences": {},
  "source": "// SPDX-License-Identifier: GPL-3.0\r\npragma solidity ^0.8.0;\r\n\r\ncontract AssetTracker {\r\n    struct Asset {\r\n        string name;\r\n        string description;\r\n        uint cost;\r\n        uint quantity;\r\n        string manufacturer;\r\n        string customer;\r\n        string addressFrom;\r\n        string addressTo;\r\n        bool initialized;\r\n        bool arrived;\r\n        uint distributorld;\r\n        // uint uniqueProductId;\r\n        // bool isAuthentic;  \r\n    }\r\n\r\n    struct Person {\r\n        uint id;\r\n        string name;\r\n        string add;\r\n        string email;\r\n        string phone;\r\n    }\r\n\r\n    mapping(uint => Person) private distributorStruct;\r\n    uint public distributorCount = 0;\r\n    uint public assetCount = 0;\r\n    \r\n    event RejectDistributor(string name, string add, string email, string phone);\r\n\r\n    function insertDistributor(\r\n        string memory name, \r\n        string memory add, \r\n        string memory email, \r\n        string memory phone\r\n    ) public returns(bool) {\r\n        for(uint i = 0; i < distributorCount; i++) {\r\n            require(\r\n                keccak256(abi.encodePacked((distributorStruct[i].email))) != \r\n                keccak256(abi.encodePacked((\"123@gmail.com\"))),\r\n                \"Distributor already exists\"\r\n            );\r\n        }\r\n        \r\n        distributorStruct[distributorCount] = Person(distributorCount, name, add, email, phone);\r\n        distributorCount++;\r\n        return true;\r\n    }\r\n\r\n    function getDistributorbyId(uint id) public view returns(\r\n        string memory, \r\n        string memory, \r\n        string memory, \r\n        string memory\r\n    ) {\r\n        return (\r\n            distributorStruct[id].name, \r\n            distributorStruct[id].add, \r\n            distributorStruct[id].email, \r\n            distributorStruct[id].phone\r\n        );\r\n    }\r\n\r\n    function getAllDistributors() public view returns (Person[] memory) {\r\n        Person[] memory id = new Person[](distributorCount);\r\n        for (uint i = 0; i < distributorCount; i++) {\r\n            Person storage member = distributorStruct[i];\r\n            id[i] = member;\r\n        }\r\n        return id;\r\n    }\r\n\r\n    function balance(uint _amount) public pure returns(bool) {\r\n        require(_amount > 20, \"Balance need to be greater than 20\");\r\n        return true;\r\n    }\r\n\r\n    mapping(uint => Asset) private assetStore;\r\n    mapping(address => mapping(uint => bool)) private walletStore;\r\n\r\n    function createAsset(\r\n        string memory name, \r\n        string memory description,\r\n        uint distributorld,\r\n        uint cost, \r\n        uint quantity, \r\n        string memory manufacturer, \r\n        string memory customer,\r\n        string memory addressFrom, \r\n        string memory addressTo\r\n    ) public {\r\n        assetStore[assetCount] = Asset(\r\n            name,\r\n            description,\r\n            cost,\r\n            quantity,\r\n            manufacturer,\r\n            customer,\r\n            addressFrom,\r\n            addressTo,\r\n            true,\r\n            false,\r\n            distributorld\r\n        );\r\n            // assetCount,  // uniqueProductId\r\n            // true // isAuthentic\r\n        walletStore[msg.sender][assetCount] = true;\r\n        assetCount++;\r\n    }\r\n\r\n    function transferAsset(address to, uint i) public {\r\n        // require(i < assetCount, \"No asset with this UUID exists\");\r\n        require(assetStore[assetCount].initialized == true, \r\n        \"No asset with this UUID exists\");\r\n        require(walletStore[msg.sender][i], \"Sender does not own this asset\");\r\n        \r\n        walletStore[msg.sender][i] = false;\r\n        walletStore[to][i] = true;\r\n    }\r\n\r\n    function getItemByUUID(uint i) public view returns(uint cost, uint quantity) {\r\n        require(i <= assetCount, \"Asset does not exist\");\r\n        return (assetStore[i].cost, assetStore[i].quantity);\r\n    }\r\n\r\n    function isOwnerOf(address owner, uint i) public view returns (bool) {\r\n        if(walletStore[owner][i]) {\r\n            return true;\r\n        }\r\n        return false;\r\n    }\r\n\r\n    function getAllAssets() public view returns (Asset[] memory) {\r\n        Asset[] memory x = new Asset[](assetCount);\r\n        for (uint i = 0; i < assetCount; i++) {\r\n            Asset storage member = assetStore[i];\r\n            x[i] = member;\r\n        }\r\n        return x;\r\n    }\r\n\r\n    function markAsArrived(uint i) public {\r\n        assetStore[i].arrived = true;\r\n    }\r\n} ",
  "sourcePath": "C:\\Users\\sidha\\Desktop\\Blockchain\\contracts\\AssetTracker.sol",
  "compiler": {
    "name": "solc",
    "version": "0.8.12+commit.f00d7308.Emscripten.clang"
  },
  "schemaVersion": "3.4.16",
  "updatedAt": "2025-04-15T14:16:35.342Z",
  "devdoc": {
    "kind": "dev",
    "methods": {},
    "version": 1
  },
  "userdoc": {
    "kind": "user",
    "methods": {},
    "version": 1
  }
}