{
  "contractName": "Production",
  "abi": [
    {
      "inputs": [
        {
          "internalType": "uint256",
          "name": "",
          "type": "uint256"
        }
      ],
      "name": "productItems",
      "outputs": [
        {
          "internalType": "uint256",
          "name": "productId",
          "type": "uint256"
        },
        {
          "internalType": "bytes32",
          "name": "productSN",
          "type": "bytes32"
        },
        {
          "internalType": "bytes32",
          "name": "productName",
          "type": "bytes32"
        },
        {
          "internalType": "bytes32",
          "name": "productBrand",
          "type": "bytes32"
        },
        {
          "internalType": "uint256",
          "name": "productPrice",
          "type": "uint256"
        },
        {
          "internalType": "bytes32",
          "name": "productStatus",
          "type": "bytes32"
        }
      ],
      "stateMutability": "view",
      "type": "function"
    },
    {
      "inputs": [
        {
          "internalType": "bytes32",
          "name": "",
          "type": "bytes32"
        }
      ],
      "name": "productManufactured",
      "outputs": [
        {
          "internalType": "bytes32",
          "name": "",
          "type": "bytes32"
        }
      ],
      "stateMutability": "view",
      "type": "function"
    },
    {
      "inputs": [
        {
          "internalType": "bytes32",
          "name": "",
          "type": "bytes32"
        }
      ],
      "name": "productMap",
      "outputs": [
        {
          "internalType": "uint256",
          "name": "",
          "type": "uint256"
        }
      ],
      "stateMutability": "view",
      "type": "function"
    },
    {
      "inputs": [
        {
          "internalType": "bytes32",
          "name": "",
          "type": "bytes32"
        }
      ],
      "name": "productsForSale",
      "outputs": [
        {
          "internalType": "bytes32",
          "name": "",
          "type": "bytes32"
        }
      ],
      "stateMutability": "view",
      "type": "function"
    },
    {
      "inputs": [
        {
          "internalType": "bytes32",
          "name": "",
          "type": "bytes32"
        }
      ],
      "name": "productsSold",
      "outputs": [
        {
          "internalType": "bytes32",
          "name": "",
          "type": "bytes32"
        }
      ],
      "stateMutability": "view",
      "type": "function"
    },
    {
      "inputs": [
        {
          "internalType": "bytes32",
          "name": "",
          "type": "bytes32"
        },
        {
          "internalType": "uint256",
          "name": "",
          "type": "uint256"
        }
      ],
      "name": "productsWithConsumer",
      "outputs": [
        {
          "internalType": "bytes32",
          "name": "",
          "type": "bytes32"
        }
      ],
      "stateMutability": "view",
      "type": "function"
    },
    {
      "inputs": [
        {
          "internalType": "bytes32",
          "name": "",
          "type": "bytes32"
        },
        {
          "internalType": "uint256",
          "name": "",
          "type": "uint256"
        }
      ],
      "name": "productsWithSeller",
      "outputs": [
        {
          "internalType": "bytes32",
          "name": "",
          "type": "bytes32"
        }
      ],
      "stateMutability": "view",
      "type": "function"
    },
    {
      "inputs": [
        {
          "internalType": "uint256",
          "name": "",
          "type": "uint256"
        }
      ],
      "name": "sellers",
      "outputs": [
        {
          "internalType": "uint256",
          "name": "sellerId",
          "type": "uint256"
        },
        {
          "internalType": "bytes32",
          "name": "sellerName",
          "type": "bytes32"
        },
        {
          "internalType": "bytes32",
          "name": "sellerBrand",
          "type": "bytes32"
        },
        {
          "internalType": "bytes32",
          "name": "sellerCode",
          "type": "bytes32"
        },
        {
          "internalType": "uint256",
          "name": "sellerNum",
          "type": "uint256"
        },
        {
          "internalType": "bytes32",
          "name": "sellerManager",
          "type": "bytes32"
        },
        {
          "internalType": "bytes32",
          "name": "sellerAddress",
          "type": "bytes32"
        }
      ],
      "stateMutability": "view",
      "type": "function"
    },
    {
      "inputs": [
        {
          "internalType": "bytes32",
          "name": "",
          "type": "bytes32"
        },
        {
          "internalType": "uint256",
          "name": "",
          "type": "uint256"
        }
      ],
      "name": "sellersWithManufacturer",
      "outputs": [
        {
          "internalType": "bytes32",
          "name": "",
          "type": "bytes32"
        }
      ],
      "stateMutability": "view",
      "type": "function"
    },
    {
      "inputs": [
        {
          "internalType": "bytes32",
          "name": "_manufacturerId",
          "type": "bytes32"
        },
        {
          "internalType": "bytes32",
          "name": "_sellerName",
          "type": "bytes32"
        },
        {
          "internalType": "bytes32",
          "name": "_sellerBrand",
          "type": "bytes32"
        },
        {
          "internalType": "bytes32",
          "name": "_sellerCode",
          "type": "bytes32"
        },
        {
          "internalType": "uint256",
          "name": "_sellerNum",
          "type": "uint256"
        },
        {
          "internalType": "bytes32",
          "name": "_sellerManager",
          "type": "bytes32"
        },
        {
          "internalType": "bytes32",
          "name": "_sellerAddress",
          "type": "bytes32"
        }
      ],
      "name": "addSeller",
      "outputs": [],
      "stateMutability": "nonpayable",
      "type": "function"
    },
    {
      "inputs": [],
      "name": "viewSellers",
      "outputs": [
        {
          "internalType": "uint256[]",
          "name": "",
          "type": "uint256[]"
        },
        {
          "internalType": "bytes32[]",
          "name": "",
          "type": "bytes32[]"
        },
        {
          "internalType": "bytes32[]",
          "name": "",
          "type": "bytes32[]"
        },
        {
          "internalType": "bytes32[]",
          "name": "",
          "type": "bytes32[]"
        },
        {
          "internalType": "uint256[]",
          "name": "",
          "type": "uint256[]"
        },
        {
          "internalType": "bytes32[]",
          "name": "",
          "type": "bytes32[]"
        },
        {
          "internalType": "bytes32[]",
          "name": "",
          "type": "bytes32[]"
        }
      ],
      "stateMutability": "view",
      "type": "function"
    },
    {
      "inputs": [
        {
          "internalType": "bytes32",
          "name": "_manufacturerId",
          "type": "bytes32"
        },
        {
          "internalType": "bytes32",
          "name": "_productSN",
          "type": "bytes32"
        },
        {
          "internalType": "bytes32",
          "name": "_productName",
          "type": "bytes32"
        },
        {
          "internalType": "bytes32",
          "name": "_productBrand",
          "type": "bytes32"
        },
        {
          "internalType": "uint256",
          "name": "_productPrice",
          "type": "uint256"
        }
      ],
      "name": "addProduct",
      "outputs": [],
      "stateMutability": "nonpayable",
      "type": "function"
    },
    {
      "inputs": [],
      "name": "viewProductItems",
      "outputs": [
        {
          "internalType": "uint256[]",
          "name": "",
          "type": "uint256[]"
        },
        {
          "internalType": "bytes32[]",
          "name": "",
          "type": "bytes32[]"
        },
        {
          "internalType": "bytes32[]",
          "name": "",
          "type": "bytes32[]"
        },
        {
          "internalType": "bytes32[]",
          "name": "",
          "type": "bytes32[]"
        },
        {
          "internalType": "uint256[]",
          "name": "",
          "type": "uint256[]"
        },
        {
          "internalType": "bytes32[]",
          "name": "",
          "type": "bytes32[]"
        }
      ],
      "stateMutability": "view",
      "type": "function"
    },
    {
      "inputs": [
        {
          "internalType": "bytes32",
          "name": "_productSN",
          "type": "bytes32"
        },
        {
          "internalType": "bytes32",
          "name": "_sellerCode",
          "type": "bytes32"
        }
      ],
      "name": "manufacturerSellProduct",
      "outputs": [],
      "stateMutability": "nonpayable",
      "type": "function"
    },
    {
      "inputs": [
        {
          "internalType": "bytes32",
          "name": "_productSN",
          "type": "bytes32"
        },
        {
          "internalType": "bytes32",
          "name": "_consumerCode",
          "type": "bytes32"
        }
      ],
      "name": "sellerSellProduct",
      "outputs": [],
      "stateMutability": "nonpayable",
      "type": "function"
    },
    {
      "inputs": [
        {
          "internalType": "bytes32",
          "name": "_sellerCode",
          "type": "bytes32"
        }
      ],
      "name": "queryProductsList",
      "outputs": [
        {
          "internalType": "uint256[]",
          "name": "",
          "type": "uint256[]"
        },
        {
          "internalType": "bytes32[]",
          "name": "",
          "type": "bytes32[]"
        },
        {
          "internalType": "bytes32[]",
          "name": "",
          "type": "bytes32[]"
        },
        {
          "internalType": "bytes32[]",
          "name": "",
          "type": "bytes32[]"
        },
        {
          "internalType": "uint256[]",
          "name": "",
          "type": "uint256[]"
        },
        {
          "internalType": "bytes32[]",
          "name": "",
          "type": "bytes32[]"
        }
      ],
      "stateMutability": "view",
      "type": "function"
    },
    {
      "inputs": [
        {
          "internalType": "bytes32",
          "name": "_manufacturerCode",
          "type": "bytes32"
        }
      ],
      "name": "querySellersList",
      "outputs": [
        {
          "internalType": "uint256[]",
          "name": "",
          "type": "uint256[]"
        },
        {
          "internalType": "bytes32[]",
          "name": "",
          "type": "bytes32[]"
        },
        {
          "internalType": "bytes32[]",
          "name": "",
          "type": "bytes32[]"
        },
        {
          "internalType": "bytes32[]",
          "name": "",
          "type": "bytes32[]"
        },
        {
          "internalType": "uint256[]",
          "name": "",
          "type": "uint256[]"
        },
        {
          "internalType": "bytes32[]",
          "name": "",
          "type": "bytes32[]"
        },
        {
          "internalType": "bytes32[]",
          "name": "",
          "type": "bytes32[]"
        }
      ],
      "stateMutability": "view",
      "type": "function"
    },
    {
      "inputs": [
        {
          "internalType": "bytes32",
          "name": "_consumerCode",
          "type": "bytes32"
        }
      ],
      "name": "getPurchaseHistory",
      "outputs": [
        {
          "internalType": "bytes32[]",
          "name": "",
          "type": "bytes32[]"
        },
        {
          "internalType": "bytes32[]",
          "name": "",
          "type": "bytes32[]"
        },
        {
          "internalType": "bytes32[]",
          "name": "",
          "type": "bytes32[]"
        }
      ],
      "stateMutability": "view",
      "type": "function"
    },
    {
      "inputs": [
        {
          "internalType": "bytes32",
          "name": "_productSN",
          "type": "bytes32"
        },
        {
          "internalType": "bytes32",
          "name": "_consumerCode",
          "type": "bytes32"
        }
      ],
      "name": "verifyProduct",
      "outputs": [
        {
          "internalType": "bool",
          "name": "",
          "type": "bool"
        }
      ],
      "stateMutability": "view",
      "type": "function"
    }
  ],
  "bytecode": "0x608060405234801561001057600080fd5b50611a99806100206000396000f3fe608060405234801561001057600080fd5b50600436106101215760003560e01c80639316bff0116100ad578063b494a1e511610071578063b494a1e5146102bd578063caaf2751146102dd578063cd4f6a2e14610354578063cee26ed514610374578063e262113f146103f457600080fd5b80639316bff0146102425780639cd777dd146102555780639ea4695d14610268578063a090f47c1461028a578063b0c7ad94146102aa57600080fd5b80631b3658c8116100f45780631b3658c8146101a5578063344b5d51146101ba5780634b993001146101dd5780638577a701146101f057806392162bc41461022f57600080fd5b8063032f95e614610126578063100b6ba21461014a578063130aa81f146101785780631836bd4b1461018b575b600080fd5b61012e610407565b60405161014197969594939291906117f0565b60405180910390f35b61016a610158366004611887565b60046020526000908152604090205481565b604051908152602001610141565b61012e610186366004611887565b6107a5565b610193610c1a565b604051610141969594939291906118a0565b6101b86101b3366004611922565b610f3d565b005b6101cd6101c836600461196e565b610ff1565b6040519015158152602001610141565b61016a6101eb36600461196e565b611019565b6101b86101fe36600461196e565b6000818152600860209081526040808320805460018101825590845282842001859055938252600690529190912055565b61019361023d366004611887565b61104a565b6101b8610250366004611990565b61143f565b61016a61026336600461196e565b611501565b61027b610276366004611887565b61151d565b604051610141939291906119cb565b61016a610298366004611887565b60066020526000908152604090205481565b6101b86102b836600461196e565b6116d7565b61016a6102cb366004611887565b60056020526000908152604090205481565b6103276102eb366004611887565b60036020528060005260406000206000915090508060000154908060010154908060020154908060030154908060040154908060050154905086565b604080519687526020870195909552938501929092526060840152608083015260a082015260c001610141565b61016a610362366004611887565b60076020526000908152604090205481565b6103bf610382366004611887565b6002602081905260009182526040909120805460018201549282015460038301546004840154600585015460069095015493959492939192909187565b604080519788526020880196909652948601939093526060850191909152608084015260a083015260c082015260e001610141565b61016a61040236600461196e565b611799565b6060806060806060806060600080546001600160401b0381111561042d5761042d611a0e565b604051908082528060200260200182016040528015610456578160200160208202803683370190505b509050600080546001600160401b0381111561047457610474611a0e565b60405190808252806020026020018201604052801561049d578160200160208202803683370190505b509050600080546001600160401b038111156104bb576104bb611a0e565b6040519080825280602002602001820160405280156104e4578160200160208202803683370190505b509050600080546001600160401b0381111561050257610502611a0e565b60405190808252806020026020018201604052801561052b578160200160208202803683370190505b509050600080546001600160401b0381111561054957610549611a0e565b604051908082528060200260200182016040528015610572578160200160208202803683370190505b509050600080546001600160401b0381111561059057610590611a0e565b6040519080825280602002602001820160405280156105b9578160200160208202803683370190505b509050600080546001600160401b038111156105d7576105d7611a0e565b604051908082528060200260200182016040528015610600578160200160208202803683370190505b50905060005b60005481101561078e57600081815260026020526040902054885189908390811061063357610633611a24565b602002602001018181525050600260008281526020019081526020016000206001015487828151811061066857610668611a24565b602002602001018181525050600260008281526020019081526020016000206002015486828151811061069d5761069d611a24565b60200260200101818152505060026000828152602001908152602001600020600301548582815181106106d2576106d2611a24565b602002602001018181525050600260008281526020019081526020016000206004015484828151811061070757610707611a24565b602002602001018181525050600260008281526020019081526020016000206005015483828151811061073c5761073c611a24565b602002602001018181525050600260008281526020019081526020016000206006015482828151811061077157610771611a24565b60209081029190910101528061078681611a3a565b915050610606565b50959d949c50929a50909850965094509092509050565b60608060608060608060606000600a60008a815260200190815260200160002080548060200260200160405190810160405280929190818152602001828054801561080f57602002820191906000526020600020905b8154815260200190600101908083116107fb575b5050505050905060008080546001600160401b0381111561083257610832611a0e565b60405190808252806020026020018201604052801561085b578160200160208202803683370190505b509050600080546001600160401b0381111561087957610879611a0e565b6040519080825280602002602001820160405280156108a2578160200160208202803683370190505b509050600080546001600160401b038111156108c0576108c0611a0e565b6040519080825280602002602001820160405280156108e9578160200160208202803683370190505b509050600080546001600160401b0381111561090757610907611a0e565b604051908082528060200260200182016040528015610930578160200160208202803683370190505b509050600080546001600160401b0381111561094e5761094e611a0e565b604051908082528060200260200182016040528015610977578160200160208202803683370190505b509050600080546001600160401b0381111561099557610995611a0e565b6040519080825280602002602001820160405280156109be578160200160208202803683370190505b509050600080546001600160401b038111156109dc576109dc611a0e565b604051908082528060200260200182016040528015610a05578160200160208202803683370190505b50905060005b600054811015610bfb5760005b8a51811015610be8578a8181518110610a3357610a33611a24565b602002602001015160026000848152602001908152602001600020600301541415610bd65760008281526002602052604090205489518a908c908110610a7b57610a7b611a24565b6020026020010181815250506002600083815260200190815260200160002060010154888b81518110610ab057610ab0611a24565b6020026020010181815250506002600083815260200190815260200160002060020154878b81518110610ae557610ae5611a24565b6020026020010181815250506002600083815260200190815260200160002060030154868b81518110610b1a57610b1a611a24565b6020026020010181815250506002600083815260200190815260200160002060040154858b81518110610b4f57610b4f611a24565b6020026020010181815250506002600083815260200190815260200160002060050154848b81518110610b8457610b84611a24565b6020026020010181815250506002600083815260200190815260200160002060060154838b81518110610bb957610bb9611a24565b602090810291909101015289610bce81611a3a565b9a5050610be8565b80610be081611a3a565b915050610a18565b5080610bf381611a3a565b915050610a0b565b50959e50939c50919a5098509650945092505050919395979092949650565b60608060608060608060006001546001600160401b03811115610c3f57610c3f611a0e565b604051908082528060200260200182016040528015610c68578160200160208202803683370190505b50905060006001546001600160401b03811115610c8757610c87611a0e565b604051908082528060200260200182016040528015610cb0578160200160208202803683370190505b50905060006001546001600160401b03811115610ccf57610ccf611a0e565b604051908082528060200260200182016040528015610cf8578160200160208202803683370190505b50905060006001546001600160401b03811115610d1757610d17611a0e565b604051908082528060200260200182016040528015610d40578160200160208202803683370190505b50905060006001546001600160401b03811115610d5f57610d5f611a0e565b604051908082528060200260200182016040528015610d88578160200160208202803683370190505b50905060006001546001600160401b03811115610da757610da7611a0e565b604051908082528060200260200182016040528015610dd0578160200160208202803683370190505b50905060005b600154811015610f29576000818152600360205260409020548751889083908110610e0357610e03611a24565b6020026020010181815250506003600082815260200190815260200160002060010154868281518110610e3857610e38611a24565b6020026020010181815250506003600082815260200190815260200160002060020154858281518110610e6d57610e6d611a24565b6020026020010181815250506003600082815260200190815260200160002060030154848281518110610ea257610ea2611a24565b6020026020010181815250506003600082815260200190815260200160002060040154838281518110610ed757610ed7611a24565b6020026020010181815250506003600082815260200190815260200160002060050154828281518110610f0c57610f0c611a24565b602090810291909101015280610f2181611a3a565b915050610dd6565b50949b939a50919850965094509092509050565b6040805160e0810182526000805480835260208084018b81528486018b8152606086018b8152608087018b815260a088018b815260c089018b815296885260029586905298872097518855925160018801559051928601929092559051600385015551600484015592516005830155915160069091015580549080610fc183611a3a565b90915550505060009586525050600a60209081526040852080546001810182559086529420909301929092555050565b60008281526007602052604081205482141561100f57506001611013565b5060005b92915050565b6008602052816000526040600020818154811061103557600080fd5b90600052602060002001600091509150505481565b6060806060806060806000600860008981526020019081526020016000208054806020026020016040519081016040528092919081815260200182805480156110b257602002820191906000526020600020905b81548152602001906001019080831161109e575b505050505090506000806001546001600160401b038111156110d6576110d6611a0e565b6040519080825280602002602001820160405280156110ff578160200160208202803683370190505b50905060006001546001600160401b0381111561111e5761111e611a0e565b604051908082528060200260200182016040528015611147578160200160208202803683370190505b50905060006001546001600160401b0381111561116657611166611a0e565b60405190808252806020026020018201604052801561118f578160200160208202803683370190505b50905060006001546001600160401b038111156111ae576111ae611a0e565b6040519080825280602002602001820160405280156111d7578160200160208202803683370190505b50905060006001546001600160401b038111156111f6576111f6611a0e565b60405190808252806020026020018201604052801561121f578160200160208202803683370190505b50905060006001546001600160401b0381111561123e5761123e611a0e565b604051908082528060200260200182016040528015611267578160200160208202803683370190505b50905060005b6001548110156114285760005b89518110156114155789818151811061129557611295611a24565b60200260200101516003600084815260200190815260200160002060010154141561140357600082815260036020526040902054885189908b9081106112dd576112dd611a24565b6020026020010181815250506003600083815260200190815260200160002060010154878a8151811061131257611312611a24565b6020026020010181815250506003600083815260200190815260200160002060020154868a8151811061134757611347611a24565b6020026020010181815250506003600083815260200190815260200160002060030154858a8151811061137c5761137c611a24565b6020026020010181815250506003600083815260200190815260200160002060040154848a815181106113b1576113b1611a24565b6020026020010181815250506003600083815260200190815260200160002060050154838a815181106113e6576113e6611a24565b6020908102919091010152886113fb81611a3a565b995050611415565b8061140d81611a3a565b91505061127a565b508061142081611a3a565b91505061126d565b50949e939d50919b50995097509095509350505050565b6040805160c081018252600180548083526020808401898152848601898152606086018981526080870189815268417661696c61626c6560b81b60a08901908152600096875260038087528a882099518a559451898901559251600289015590519287019290925590516004808701919091559051600590950194909455825489835293905292832082905590916114d683611a3a565b9091555050506000938452505060086020908152604083208054600181018255908452922090910155565b6009602052816000526040600020818154811061103557600080fd5b606080606060006009600086815260200190815260200160002080548060200260200160405190810160405280929190818152602001828054801561158157602002820191906000526020600020905b81548152602001906001019080831161156d575b50505050509050600081516001600160401b038111156115a3576115a3611a0e565b6040519080825280602002602001820160405280156115cc578160200160208202803683370190505b509050600082516001600160401b038111156115ea576115ea611a0e565b604051908082528060200260200182016040528015611613578160200160208202803683370190505b50905060005b83518110156116c9576007600085838151811061163857611638611a24565b602002602001015181526020019081526020016000205483828151811061166157611661611a24565b6020026020010181815250506005600085838151811061168357611683611a24565b60200260200101518152602001908152602001600020548282815181106116ac576116ac611a24565b6020908102919091010152806116c181611a3a565b915050611619565b509196909550909350915050565b600080600080600154111561172357600091505b600154821015611723576000828152600360205260409020600101548514156117115750805b8161171b81611a3a565b9250506116eb565b600081815260036020526040902060050154925068417661696c61626c6560b81b831415611792576000818152600360209081526040808320614e4160f01b60059091015586835260098252808320805460018101825590845282842001889055878352600790915290208490555b5050505050565b600a602052816000526040600020818154811061103557600080fd5b600081518084526020808501945080840160005b838110156117e5578151875295820195908201906001016117c9565b509495945050505050565b60e08152600061180360e083018a6117b5565b8281036020840152611815818a6117b5565b9050828103604084015261182981896117b5565b9050828103606084015261183d81886117b5565b9050828103608084015261185181876117b5565b905082810360a084015261186581866117b5565b905082810360c084015261187981856117b5565b9a9950505050505050505050565b60006020828403121561189957600080fd5b5035919050565b60c0815260006118b360c08301896117b5565b82810360208401526118c581896117b5565b905082810360408401526118d981886117b5565b905082810360608401526118ed81876117b5565b9050828103608084015261190181866117b5565b905082810360a084015261191581856117b5565b9998505050505050505050565b600080600080600080600060e0888a03121561193d57600080fd5b505085359760208701359750604087013596606081013596506080810135955060a0810135945060c0013592509050565b6000806040838503121561198157600080fd5b50508035926020909101359150565b600080600080600060a086880312156119a857600080fd5b505083359560208501359550604085013594606081013594506080013592509050565b6060815260006119de60608301866117b5565b82810360208401526119f081866117b5565b90508281036040840152611a0481856117b5565b9695505050505050565b634e487b7160e01b600052604160045260246000fd5b634e487b7160e01b600052603260045260246000fd5b6000600019821415611a5c57634e487b7160e01b600052601160045260246000fd5b506001019056fea264697066735822122095304317fa344b92c4e895b8d78fbf57a81d72c7800da19594bbe83321c7e1eb64736f6c634300080c0033",
  "immutableReferences": {},
  "source": "// SPDX-License-Identifier: MIT\r\npragma solidity ^0.8.12;\r\n\r\ncontract Production {\r\n    uint256 sellerCount;\r\n    uint256 productCount;\r\n    \r\n    struct Seller {\r\n        uint256 sellerId;\r\n        bytes32 sellerName;\r\n        bytes32 sellerBrand;\r\n        bytes32 sellerCode;\r\n        uint256 sellerNum;\r\n        bytes32 sellerManager;\r\n        bytes32 sellerAddress;\r\n    }\r\n    \r\n    mapping(uint => Seller) public sellers;\r\n    \r\n    struct ProductItem {\r\n        uint256 productId;\r\n        bytes32 productSN;\r\n        bytes32 productName;\r\n        bytes32 productBrand;\r\n        uint256 productPrice;\r\n        bytes32 productStatus;\r\n    }\r\n    \r\n    mapping(uint256 =>ProductItem) public productItems;\r\n    mapping(bytes32 => uint256) public productMap;\r\n    mapping(bytes32 => bytes32) public productManufactured;\r\n    mapping(bytes32 => bytes32) public productsForSale;\r\n    mapping(bytes32 => bytes32) public productsSold;\r\n    mapping(bytes32 => bytes32[]) public productsWithSeller;\r\n    mapping(bytes32 => bytes32[]) public productsWithConsumer;\r\n    mapping(bytes32 => bytes32[]) public sellersWithManufacturer;\r\n\r\n    // SELLER SECTION\r\n    function addSeller(bytes32 _manufacturerId, bytes32 _sellerName, \r\n        bytes32 _sellerBrand, bytes32 _sellerCode, uint256 _sellerNum, \r\n        bytes32 _sellerManager, bytes32 _sellerAddress) public {\r\n            \r\n        sellers[sellerCount] = Seller(sellerCount, _sellerName, _sellerBrand, \r\n            _sellerCode, _sellerNum, _sellerManager, _sellerAddress);\r\n        sellerCount++;\r\n        sellersWithManufacturer[_manufacturerId].push(_sellerCode);\r\n    }\r\n\r\n    function viewSellers() public view returns(\r\n        uint256[] memory, bytes32[] memory, bytes32[] memory, \r\n        bytes32[] memory, uint256[] memory, bytes32[] memory, \r\n        bytes32[] memory) {\r\n            \r\n        uint256[] memory ids = new uint256[](sellerCount);\r\n        bytes32[] memory names = new bytes32[](sellerCount);\r\n        bytes32[] memory brands = new bytes32[](sellerCount);\r\n        bytes32[] memory codes = new bytes32[](sellerCount);\r\n        uint256[] memory nums = new uint256[](sellerCount);\r\n        bytes32[] memory managers = new bytes32[](sellerCount);\r\n        bytes32[] memory addresses = new bytes32[](sellerCount);\r\n        \r\n        for(uint i = 0; i < sellerCount; i++) {\r\n            ids[i] = sellers[i].sellerId;\r\n            names[i] = sellers[i].sellerName;\r\n            brands[i] = sellers[i].sellerBrand;\r\n            codes[i] = sellers[i].sellerCode;\r\n            nums[i] = sellers[i].sellerNum;\r\n            managers[i] = sellers[i].sellerManager;\r\n            addresses[i] = sellers[i].sellerAddress;\r\n        }\r\n        return (ids, names, brands, codes, nums, managers, addresses);\r\n    }\r\n\r\n    // PRODUCT SECTION\r\n    function addProduct(bytes32 _manufacturerId, bytes32 _productSN, \r\n        bytes32 _productName, bytes32 _productBrand, \r\n        uint256 _productPrice) public {\r\n            \r\n        productItems[productCount] = ProductItem(productCount, _productSN, \r\n            _productName, _productBrand, _productPrice, \"Available\");\r\n        productMap[_productSN] = productCount;\r\n        productCount++;\r\n        productsWithSeller[_manufacturerId].push(_productSN);\r\n    }\r\n\r\n    // ... (other functions would follow similarly)\r\n    \r\n function viewProductItems() public view returns(\r\n        uint256[] memory, bytes32[] memory, bytes32[] memory, \r\n        bytes32[] memory, uint256[] memory, bytes32[] memory) {\r\n        \r\n        uint256[] memory pids = new uint256[](productCount);\r\n        bytes32[] memory pSNs = new bytes32[](productCount);\r\n        bytes32[] memory pnames = new bytes32[](productCount);\r\n        bytes32[] memory pbrands = new bytes32[](productCount);\r\n        uint256[] memory pprices = new uint256[](productCount);\r\n        bytes32[] memory pstatus = new bytes32[](productCount);\r\n        \r\n        for(uint i = 0; i < productCount; i++) {\r\n            pids[i] = productItems[i].productId;\r\n            pSNs[i] = productItems[i].productSN;\r\n            pnames[i] = productItems[i].productName;\r\n            pbrands[i] = productItems[i].productBrand;\r\n            pprices[i] = productItems[i].productPrice;\r\n            pstatus[i] = productItems[i].productStatus;\r\n        }\r\n        return (pids, pSNs, pnames, pbrands, pprices, pstatus);\r\n    }\r\n\r\n    // SELL PRODUCT FUNCTIONS\r\n    function manufacturerSellProduct(bytes32 _productSN, bytes32 _sellerCode) public {\r\n        productsWithSeller[_sellerCode].push(_productSN);\r\n        productsForSale[_productSN] = _sellerCode;\r\n    }\r\n\r\n    function sellerSellProduct( bytes32 _productSN, bytes32 _consumerCode) public {\r\n        bytes32 pStatus;\r\n        uint256 i;\r\n        uint256 j=0;\r\n        if(productCount>0) {\r\n            for(i=0; i<productCount; i++) {\r\n                if(productItems[i].productSN == _productSN) {\r\n                    j=i;\r\n                }\r\n            }\r\n        }        \r\n        pStatus = productItems[j].productStatus;\r\n        if(pStatus == \"Available\") {\r\n            productItems[j].productStatus = \"NA\";\r\n            productsWithConsumer[_consumerCode].push(_productSN);\r\n            productsSold[_productSN] = _consumerCode;\r\n\r\n        }\r\n    }\r\n\r\n    // QUERY FUNCTIONS\r\n    function queryProductsList(bytes32 _sellerCode) public view returns(\r\n        uint256[] memory, bytes32[] memory, bytes32[] memory, \r\n        bytes32[] memory, uint256[] memory, bytes32[] memory) {\r\n        \r\n        bytes32[] memory productSNs = productsWithSeller[_sellerCode];\r\n        uint256 k = 0;\r\n        \r\n        uint256[] memory pids = new uint256[](productCount);\r\n        bytes32[] memory pSNs = new bytes32[](productCount);\r\n        bytes32[] memory pnames = new bytes32[](productCount);\r\n        bytes32[] memory pbrands = new bytes32[](productCount);\r\n        uint256[] memory pprices = new uint256[](productCount);\r\n        bytes32[] memory pstatus = new bytes32[](productCount);\r\n        \r\n        for(uint i = 0; i < productCount; i++) {\r\n            for(uint j = 0; j < productSNs.length; j++) {\r\n                if(productItems[i].productSN == productSNs[j]) {\r\n                    pids[k] = productItems[i].productId;\r\n                    pSNs[k] = productItems[i].productSN;\r\n                    pnames[k] = productItems[i].productName;\r\n                    pbrands[k] = productItems[i].productBrand;\r\n                    pprices[k] = productItems[i].productPrice;\r\n                    pstatus[k] = productItems[i].productStatus;\r\n                    k++;\r\n                    break;\r\n                }\r\n            }\r\n        }\r\n        return (pids, pSNs, pnames, pbrands, pprices, pstatus);\r\n    }\r\n\r\n    function querySellersList(bytes32 _manufacturerCode) public view returns(\r\n        uint256[] memory, bytes32[] memory, bytes32[] memory, \r\n        bytes32[] memory, uint256[] memory, bytes32[] memory, \r\n        bytes32[] memory) {\r\n        \r\n        bytes32[] memory sellerCodes = sellersWithManufacturer[_manufacturerCode];\r\n        uint256 k = 0;\r\n        \r\n        uint256[] memory ids = new uint256[](sellerCount);\r\n        bytes32[] memory snames = new bytes32[](sellerCount);\r\n        bytes32[] memory sbrands = new bytes32[](sellerCount);\r\n        bytes32[] memory scodes = new bytes32[](sellerCount);\r\n        uint256[] memory snums = new uint256[](sellerCount);\r\n        bytes32[] memory smanagers = new bytes32[](sellerCount);\r\n        bytes32[] memory saddress = new bytes32[](sellerCount);\r\n        \r\n        for(uint i = 0; i < sellerCount; i++) {\r\n            for(uint j = 0; j < sellerCodes.length; j++) {\r\n                if(sellers[i].sellerCode == sellerCodes[j]) {\r\n                    ids[k] = sellers[i].sellerId;\r\n                    snames[k] = sellers[i].sellerName;\r\n                    sbrands[k] = sellers[i].sellerBrand;\r\n                    scodes[k] = sellers[i].sellerCode;\r\n                    snums[k] = sellers[i].sellerNum;\r\n                    smanagers[k] = sellers[i].sellerManager;\r\n                    saddress[k] = sellers[i].sellerAddress;\r\n                    k++;\r\n                    break;\r\n                }\r\n            }\r\n        }\r\n        return (ids, snames, sbrands, scodes, snums, smanagers, saddress);\r\n    }\r\n\r\n    // PURCHASE HISTORY FUNCTION\r\n    function getPurchaseHistory(bytes32 _consumerCode) public view returns(\r\n        bytes32[] memory, bytes32[] memory, bytes32[] memory) {\r\n        \r\n        bytes32[] memory productSNs = productsWithConsumer[_consumerCode];\r\n        bytes32[] memory sellerCodes = new bytes32[](productSNs.length);\r\n        bytes32[] memory manufacturerCodes = new bytes32[](productSNs.length);\r\n        \r\n        for(uint i = 0; i < productSNs.length; i++) {\r\n            sellerCodes[i] = productsSold[productSNs[i]];\r\n            manufacturerCodes[i] = productManufactured[productSNs[i]];\r\n        }\r\n        return (productSNs, sellerCodes, manufacturerCodes);\r\n    }\r\n\r\n    // VERIFICATION FUNCTION\r\n    function verifyProduct(bytes32 _productSN, bytes32 _consumerCode) public view returns(bool) {\r\n        if(productsSold[_productSN] == _consumerCode) {\r\n            return true;\r\n        }\r\n        else {\r\n            return false;\r\n        }\r\n    }\r\n}\r\n",
  "sourcePath": "C:\\Users\\sidha\\Desktop\\Blockchain\\contracts\\Production.sol",
  "compiler": {
    "name": "solc",
    "version": "0.8.12+commit.f00d7308.Emscripten.clang"
  },
  "schemaVersion": "3.4.16",
  "updatedAt": "2025-04-15T14:16:35.363Z",
  "devdoc": {
    "kind": "dev",
    "methods": {},
    "version": 1
  },
  "userdoc": {
    "kind": "user",
    "methods": {},
    "version": 1
  }
}